:100000000C9446000C9465000C9465000C946500FB
:100010000C9465000C9465000C9465000C946500CC
:100020000C9465000C9465000C9465000C946500BC
:100030000C9465000C94A5010C9465000C9465006B
:100040000C9465000C9465000C9465000C9465009C
:100050000C9465000C9465000C9465000C9465008C
:100060000C9465000C9465000C9465000C9465007C
:100070000C9465000C9465000C9465000C9465006C
:100080000C9465000C9465000C94650011241FBE4F
:10009000CFEFD0E4DEBFCDBF11E0A0E0B1E0ECEAED
:1000A000F9E000E00BBF02C007900D92A236B10745
:1000B000D9F721E0A2E6B1E001C01D92A237B20754
:1000C000E1F70E940E030C94D4040C940000CF932B
:1000D000DF9300D01F92CDB7DEB789837B836A831D
:1000E00089818A3031F48A819B81BC018DE00E9434
:1000F000670080EC90E0FC018081882F90E08072A6
:100100009927892BB1F386EC90E02981FC012083AB
:1001100080E090E00F900F900F90DF91CF910895C5
:100120000F931F93CF93DF9300D000D0CDB7DEB7EE
:1001300069837A838B839C838091670190916801A6
:10014000A0916901B0916A019C01AD0169817A8138
:100150008B819C810E944003882309F477C020E0B2
:1001600030E0A90169817A818B819C810E944003E2
:10017000882351F481E990E021E930E0F901208100
:100180002870FC01208309C081E990E021E930E07A
:10019000F90120812360FC01208328E539E344E74D
:1001A0005FE369817A818B819C810E94400388236F
:1001B00044F488E990E02FEF3FEFFC013183208386
:1001C00034C020E034E244EF56E469817A818B81C7
:1001D0009C810E946204181634F488E990E0FC01C6
:1001E0001182108222C008E910E020E030E040E0F7
:1001F00053E469817A818B819C810E946704DC01D0
:10020000CB019C01AD0160E074E284EF9AE40E94AE
:100210004503DC01CB01BC01CD010E94B703DC0129
:10022000CB010197F8019183808384E990E0FC0180
:100230001182108289819A81AB81BC818093670190
:1002400090936801A0936901B0936A0100000F9038
:100250000F900F900F90DF91CF911F910F91089504
:10026000CF93DF93CDB7DEB780E990E020E4FC01C7
:10027000208381E990E02BE0FC01208360E070E0C6
:10028000CB010E9490000000DF91CF910895CF93A1
:10029000DF93CDB7DEB780E990E0FC01108281E901
:1002A00090E0FC0110820000DF91CF910895CF9380
:1002B000DF93CDB7DEB781E890E02BE0FC0120832F
:1002C00088E890E02DE730E0FC01318320838FE661
:1002D00090E022E0FC01208384E890E0FC011182A0
:1002E000108280910E0190910F01A0911001B091A8
:1002F00011018093630190936401A0936501B09311
:1003000066018FE590E02FE530E0F901208120685B
:10031000FC0120830000DF91CF910895CF93DF93FC
:10032000CDB7DEB781E890E0FC0110820000DF91DC
:10033000CF910895CF93DF93CDB7DEB781E080935F
:1003400062010000DF91CF9108951F920F920090FB
:100350005F000F92112400905B000F922F933F9348
:100360004F935F936F937F938F939F93AF93BF93BD
:10037000EF93FF93CF93DF93CDB7DEB78091630107
:1003800090916401A0916501B09166010197A10966
:10039000B1098093630190936401A0936501B093C8
:1003A00066018091630190916401A0916501B09113
:1003B0006601892B8A2B8B2B91F40E949A018091E4
:1003C0000E0190910F01A0911001B0911101809345
:1003D000630190936401A0936501B09366010000EE
:1003E000DF91CF91FF91EF91BF91AF919F918F914D
:1003F0007F916F915F914F913F912F910F9000925C
:100400005B000F9000925F000F901F901895CF93A4
:10041000DF9300D000D0CDB7DEB769837A838B83BA
:100420009C8389819A81AB81BC8180930E019093DA
:100430000F01A0931001B093110180910E019091D2
:100440000F01A0911001B09111018093630190936D
:100450006401A0936501B093660100000F900F90B6
:100460000F900F90DF91CF910895CF93DF93CDB789
:10047000DEB7C155D1090FB6F894DEBF0FBECDBFB0
:1004800080E290E0FC018081882F90E081709927C4
:1004900021E0892B09F020E0298380E5E2E1F1E009
:1004A000DE01129601900D928A95E1F7809170011C
:1004B000909171018130910581F08130910530F08A
:1004C00082309105E9F00397D9F14BC081E090E0CB
:1004D00090937101809370014BC08981813049F400
:1004E00082E090E0909371018093700110926B0113
:1004F0003FC081E090E0909371018093700138C01B
:1005000080916B01843138F482E090E09093710126
:10051000809370012DC080916B01843151F48981E9
:10052000813039F483E090E0909371018093700101
:100530001FC081E090E0909371018093700118C01A
:100540008981813039F483E090E090937101809348
:1005500070010EC081E090E0909371018093700172
:1005600007C081E090E090937101809370010000DA
:1005700080917001909171018130910551F081302D
:10058000910508F43FC08230910549F00397A1F12D
:100590003AC060E070E0CB010E94900034C08091CE
:1005A0006B01882F90E0880F991F880F991F9E017B
:1005B0002F5F3F4F820F931F0196FC018081918135
:1005C000A281B38180936C0190936D01A0936E0121
:1005D000B0936F0180916C0190916D01A0916E01BB
:1005E000B0916F01BC01CD010E94900080916B0120
:1005F0008F5F80936B0107C060E070E0CB010E94C9
:10060000900001C000000000CF5ADF4F0FB6F894F1
:10061000DEBF0FBECDBFDF91CF910895CF93DF93A3
:10062000CDB7DEB781E290E0FC01108282E290E07B
:100630002FEFFC01208384E290E02FEFFC01208368
:1006400085E290E0FC0110820E9447010E94300187
:100650000E948E016AEF70E080E090E00E94070245
:100660000E94570110927101109270010E94350290
:100670000000809162018823E1F310926201F6CFBD
:100680000E94ED0308F481E008950E9459030C9440
:1006900028040E94210458F00E941A0440F029F412
:1006A0005F3F29F00C94110451110C945C040C94DC
:1006B00017040E94390468F39923B1F3552391F389
:1006C000951B550BBB27AA2762177307840738F0C1
:1006D0009F5F5F4F220F331F441FAA1FA9F335D01E
:1006E0000E2E3AF0E0E832D091505040E695001CD2
:1006F000CAF72BD0FE2F29D0660F771F881FBB1F8C
:10070000261737074807AB07B0E809F0BB0B802D69
:10071000BF01FF2793585F4F3AF09E3F510578F095
:100720000C9411040C945C045F3FE4F3983ED4F302
:10073000869577956795B795F7959F5FC9F7880F69
:10074000911D9695879597F90895E1E0660F771FBB
:10075000881FBB1F621773078407BA0720F0621B4C
:10076000730B840BBA0BEE1F88F7E09508950E9477
:10077000BE036894B1110C945C0408950E94410476
:1007800088F09F5798F0B92F9927B751B0F0E1F052
:10079000660F771F881F991F1AF0BA95C9F714C002
:1007A000B13091F00E945B04B1E008950C945B04B9
:1007B000672F782F8827B85F39F0B93FCCF386953B
:1007C00077956795B395D9F73EF490958095709598
:1007D00061957F4F8F4F9F4F0895990F0008550FD8
:1007E000AA0BE0E8FEEF16161706E807F907C0F0B7
:1007F00012161306E407F50798F0621B730B840BBF
:10080000950B39F40A2661F0232B242B252B21F498
:1008100008950A2609F4A140A6958FEF811D811D38
:10082000089597F99F6780E870E060E008959FEF72
:1008300080EC089500240A94161617061806090677
:10084000089500240A941216130614060506089546
:10085000092E0394000C11F4882352F0BB0F40F4CE
:10086000BF2B11F460FF04C06F5F7F4F8F4F9F4F0E
:10087000089557FD9058440F551F59F05F3F71F090
:100880004795880F97FB991F61F09F3F79F08795F7
:100890000895121613061406551FF2CF4695F1DF80
:1008A00008C0161617061806991FF1CF8695710510
:1008B000610508940895E894BB2766277727CB0144
:1008C00097F908950E94ED0308F48FEF08950E94B0
:1008D0007A040C9428040E941A0438F00E9421041F
:1008E00020F0952311F00C9411040C94170411249A
:1008F0000C945C040E94390470F3959FC1F3950F2A
:1009000050E0551F629FF001729FBB27F00DB11D93
:10091000639FAA27F00DB11DAA1F649F6627B00D23
:10092000A11D661F829F2227B00DA11D621F739F0C
:10093000B00DA11D621F839FA00D611D221F749F1A
:100940003327A00D611D231F849F600D211D822F61
:10095000762F6A2F11249F5750409AF0F1F0882388
:100960004AF0EE0FFF1FBB1F661F771F881F9150B5
:100970005040A9F79E3F510580F00C9411040C944F
:100980005C045F3FE4F3983ED4F3869577956795D2
:10099000B795F795E7959F5FC1F7FE2B880F911DDF
:0C09A0009695879597F90895F894FFCF7D
:1009AC0000000002000000006700000000000100D1
:1009BC00000000D0024400D002440000DC430000E0
:1009CC00DC430000DC430000DC430000DC4300009F
:1009DC00DC4300000000A4D082437BD4924300008F
:1009EC00C44300000000000000000000C4430000ED
:1009FC000000A4F0F64300D0024400000000000008
:020A0C00C443E1
:00000001FF
