:100000000C9446000C9465000C9465000C946500FB
:100010000C9465000C9465000C9465000C946500CC
:100020000C9465000C9465000C9465000C946500BC
:100030000C9465000C94A5010C9465000C9465006B
:100040000C9465000C9465000C9465000C9465009C
:100050000C9465000C9465000C9465000C9465008C
:100060000C9465000C9465000C9465000C9465007C
:100070000C9465000C9465000C9465000C9465006C
:100080000C9465000C9465000C94650011241FBE4F
:10009000CFEFD0E4DEBFCDBF11E0A0E0B1E0EAE3F6
:1000A000FCE000E00BBF02C007900D92A233B10745
:1000B000D9F721E0A2E3B1E001C01D92A634B20756
:1000C000E1F70E944F040C941B060C940000CF93A0
:1000D000DF9300D01F92CDB7DEB789837B836A831D
:1000E00089818A3031F48A819B81BC018DE00E9434
:1000F000670080EC90E0FC018081882F90E08072A6
:100100009927892BB1F386EC90E02981FC012083AB
:1001100080E090E00F900F900F90DF91CF910895C5
:100120000F931F93CF93DF9300D000D0CDB7DEB7EE
:1001300069837A838B839C83809137019091380106
:10014000A0913901B0913A019C01AD0169817A8198
:100150008B819C810E948704882309F477C020E06A
:1001600030E0A90169817A818B819C810E9487049A
:10017000882351F481E990E021E930E0F901208100
:100180002870FC01208309C081E990E021E930E07A
:10019000F90120812360FC01208328E539E344E74D
:1001A0005FE369817A818B819C810E948704882327
:1001B00044F488E990E02FEF3FEFFC013183208386
:1001C00034C020E034E244EF56E469817A818B81C7
:1001D0009C810E94A905181634F488E990E0FC017E
:1001E0001182108222C008E910E020E030E040E0F7
:1001F00053E469817A818B819C810E94AE05DC0188
:10020000CB019C01AD0160E074E284EF9AE40E94AE
:100210008C04DC01CB01BC01CD010E94FE04DC0199
:10022000CB010197F8019183808384E990E0FC0180
:100230001182108289819A81AB81BC8180933701C0
:1002400090933801A0933901B0933A0100000F90C8
:100250000F900F900F90DF91CF911F910F91089504
:10026000CF93DF93CDB7DEB780E990E020E4FC01C7
:10027000208381E990E02BE0FC01208360E070E0C6
:10028000CB010E9490000000DF91CF910895CF93A1
:10029000DF93CDB7DEB780E990E0FC01108281E901
:1002A00090E0FC0110820000DF91CF910895CF9380
:1002B000DF93CDB7DEB781E890E02BE0FC0120832F
:1002C00088E890E02DE730E0FC01318320838FE661
:1002D00090E022E0FC01208384E890E0FC011182A0
:1002E000108280910E0190910F01A0911001B091A8
:1002F00011018093330190933401A0933501B093A1
:1003000036018FE590E02FE530E0F901208120688B
:10031000FC0120830000DF91CF910895CF93DF93FC
:10032000CDB7DEB781E890E0FC0110820000DF91DC
:10033000CF910895CF93DF93CDB7DEB781E080935F
:1003400032010000DF91CF9108951F920F9200902B
:100350005F000F92112400905B000F922F933F9348
:100360004F935F936F937F938F939F93AF93BF93BD
:10037000EF93FF93CF93DF93CDB7DEB78091330137
:1003800090913401A0913501B09136010197A109F6
:10039000B1098093330190933401A0933501B09358
:1003A00036018091330190913401A0913501B091D3
:1003B0003601892B8A2B8B2B91F40E949A01809114
:1003C0000E0190910F01A0911001B0911101809345
:1003D000330190933401A0933501B09336010000AE
:1003E000DF91CF91FF91EF91BF91AF919F918F914D
:1003F0007F916F915F914F913F912F910F9000925C
:100400005B000F9000925F000F901F901895CF93A4
:10041000DF9300D000D0CDB7DEB769837A838B83BA
:100420009C8389819A81AB81BC8180930E019093DA
:100430000F01A0931001B093110180910E019091D2
:100440000F01A0911001B09111018093330190939D
:100450003401A0933501B093360100000F900F9046
:100460000F900F90DF91CF910895CF93DF931F925C
:10047000CDB7DEB780E290E0FC018081882F90E06C
:100480008170992721E0892B09F020E02983809150
:100490004201909143018230910509F448C08330B4
:1004A000910528F4009749F0019781F151C08330FC
:1004B000910551F00497C9F04BC083E090E0909310
:1004C0004301809342014BC08981813039F484E03B
:1004D00090E0909343018093420141C083E090E01B
:1004E00090934301809342013AC08981813039F46D
:1004F00084E090E0909343018093420130C081E01A
:1005000090E0909343018093420129C0898181301A
:1005100039F482E090E090934301809342011FC040
:1005200081E090E0909343018093420118C089815B
:10053000813039F482E090E090934301809342014E
:100540000EC083E090E0909343018093420107C086
:1005500083E090E0909343018093420100008091FA
:100560004201909143018230910509F18330910558
:1005700028F4009709F1019799F01FC08330910585
:1005800019F0049731F019C0109241011092400106
:1005900014C081E090E090934101809340010DC030
:1005A00081E090E0909341018093400106C0109259
:1005B00041011092400101C0000000000F90DF9146
:1005C000CF910895CF93DF93CDB7DEB7A1970FB644
:1005D000F894DEBF0FBECDBF80E290E0FC018081C9
:1005E00080958670898380E2E2E1F1E0DE01129677
:1005F00001900D928A95E1F7809144019091450117
:100600008230910509F440C08330910528F40097A9
:1006100071F00197A9F068C08430910509F45DC0BC
:1006200084309105C0F1059709F446C05DC081E0B2
:1006300090E0909345018093440110923B015BC090
:100640008981823059F480913B01873038F482E00F
:1006500090E0909345018093440115C089818430D6
:1006600059F480913B01882339F084E090E0909325
:1006700045018093440107C081E090E090934501DB
:100680008093440138C037C083E090E090934501E7
:100690008093440130C08981823039F483E090E056
:1006A000909345018093440126C081E090E09093AF
:1006B0004501809344011FC08981843039F485E06D
:1006C00090E0909345018093440115C081E090E053
:1006D00090934501809344010EC085E090E0909393
:1006E00045018093440107C081E090E0909345016B
:1006F0008093440100008091440190914501823033
:100700009105B1F08330910538F4009709F4BCC02D
:10071000019709F47FC0B2C08430910509F441C04B
:100720008430910508F4B0C0059709F4ADC0A6C0A7
:1007300080913B018F5F80933B0180913B01882F2B
:1007400090E0880F991F880F991F9E012F5F3F4FE0
:10075000820F931F0196FC0180819181A281B38158
:1007600080933C0190933D01A0933E01B0933F01E3
:100770008091400190914101892B31F460E070E05B
:10078000CB010E94900081C080913C0190913D017D
:10079000A0913E01B0913F01BC01CD010E949000AB
:1007A00074C080913B01815080933B0180913B015B
:1007B000882F90E0880F991F880F991F9E012F5F47
:1007C0003F4F820F931F0196FC0180819181A2818E
:1007D000B38180933C0190933D01A0933E01B0937F
:1007E0003F018091400190914101892B31F460E0FB
:1007F00070E0CB010E94900048C080913C01909134
:100800003D01A0913E01B0913F01BC01CD010E948C
:1008100090003BC080913B01882F90E0880F991F8A
:10082000880F991F9E012F5F3F4F820F931F0196E4
:10083000FC0180819181A281B38180933C019093DE
:100840003D01A0933E01B0933F0180914001909102
:100850004101892B31F460E070E0CB010E949000EF
:1008600014C080913C0190913D01A0913E01B09156
:100870003F01BC01CD010E94900007C060E070E024
:10088000CB010E94900001C000000000A1960FB6AD
:10089000F894DEBF0FBECDBFDF91CF910895CF9307
:1008A000DF93CDB7DEB781E290E0FC01108282E2F7
:1008B00090E02FEFFC01208384E290E02FEFFC0119
:1008C000208385E290E0FC0110820E9447010E9493
:1008D00030010E948E016CE271E080E090E00E94A5
:1008E00007020E9457011092450110924401109294
:1008F0004301109242010E9435020E94E202000070
:10090000809132018823E1F310923201F4CF0E94EA
:10091000340508F481E008950E94A0040C946F054A
:100920000E94680558F00E94610540F029F45F3F7D
:1009300029F00C94580551110C94A3050C945E05F4
:100940000E94800568F39923B1F3552391F3951B19
:10095000550BBB27AA2762177307840738F09F5FE0
:100960005F4F220F331F441FAA1FA9F335D00E2E4D
:100970003AF0E0E832D091505040E695001CCAF7BA
:100980002BD0FE2F29D0660F771F881FBB1F26177D
:1009900037074807AB07B0E809F0BB0B802DBF0154
:1009A000FF2793585F4F3AF09E3F510578F00C9423
:1009B00058050C94A3055F3FE4F3983ED4F3869565
:1009C00077956795B795F7959F5FC9F7880F911D44
:1009D0009695879597F90895E1E0660F771F881F30
:1009E000BB1F621773078407BA0720F0621B730BE3
:1009F000840BBA0BEE1F88F7E09508950E94050559
:100A00006894B1110C94A30508950E94880588F09C
:100A10009F5798F0B92F9927B751B0F0E1F0660FC2
:100A2000771F881F991F1AF0BA95C9F714C0B13003
:100A300091F00E94A205B1E008950C94A205672FE1
:100A4000782F8827B85F39F0B93FCCF38695779532
:100A50006795B395D9F73EF490958095709561951B
:100A60007F4F8F4F9F4F0895990F0008550FAA0B86
:100A7000E0E8FEEF16161706E807F907C0F01216B1
:100A80001306E407F50798F0621B730B840B950BB4
:100A900039F40A2661F0232B242B252B21F4089509
:100AA0000A2609F4A140A6958FEF811D811D0895A6
:100AB00097F99F6780E870E060E008959FEF80EC11
:100AC000089500240A9416161706180609060895B4
:100AD00000240A9412161306140605060895092E1A
:100AE0000394000C11F4882352F0BB0F40F4BF2B89
:100AF00011F460FF04C06F5F7F4F8F4F9F4F0895C9
:100B000057FD9058440F551F59F05F3F71F04795BE
:100B1000880F97FB991F61F09F3F79F087950895A3
:100B2000121613061406551FF2CF4695F1DF08C0C2
:100B3000161617061806991FF1CF869571056105DF
:100B400008940895E894BB2766277727CB0197F987
:100B500008950E94340508F48FEF08950E94C1059E
:100B60000C946F050E94610538F00E94680520F022
:100B7000952311F00C9458050C945E0511240C94E7
:100B8000A3050E94800570F3959FC1F3950F50E077
:100B9000551F629FF001729FBB27F00DB11D639F2F
:100BA000AA27F00DB11DAA1F649F6627B00DA11DD5
:100BB000661F829F2227B00DA11D621F739FB00D7B
:100BC000A11D621F839FA00D611D221F749F3327EB
:100BD000A00D611D231F849F600D211D822F762F84
:100BE0006A2F11249F5750409AF0F1F088234AF061
:100BF000EE0FFF1FBB1F661F771F881F91505040CD
:100C0000A9F79E3F510580F00C9458050C94A3055C
:100C10005F3FE4F3983ED4F3869577956795B79553
:100C2000F795E7959F5FC1F7FE2B880F911D96956D
:0A0C3000879597F90895F894FFCF17
:100C3A000000000200000000670000000000010040
:100C4A000000A4D082437BD49243A4D0A443719DD4
:100C5A00AE430000C4430000DC43A4F0F64300D0D6
:020C6A00024442
:00000001FF
