:100000000C9446000C9465000C9465000C946500FB
:100010000C9465000C9465000C9465000C946500CC
:100020000C9465000C9465000C9465000C946500BC
:100030000C9465000C94A5010C9465000C9465006B
:100040000C9465000C9465000C9465000C9465009C
:100050000C9465000C9465000C9465000C9465008C
:100060000C9465000C9465000C9465000C9465007C
:100070000C9465000C9465000C9465000C9465006C
:100080000C9465000C9465000C94650011241FBE4F
:10009000CFEFD0E4DEBFCDBF11E0A0E0B1E0E2E001
:1000A000FBE000E00BBF02C007900D92A233B10746
:1000B000D9F721E0A2E3B1E001C01D92A234B2075A
:1000C000E1F70E94B7030C947F050C940000CF93D6
:1000D000DF9300D01F92CDB7DEB789837B836A831D
:1000E00089818A3031F48A819B81BC018DE00E9434
:1000F000670080EC90E0FC018081882F90E08072A6
:100100009927892BB1F386EC90E02981FC012083AB
:1001100080E090E00F900F900F90DF91CF910895C5
:100120000F931F93CF93DF9300D000D0CDB7DEB7EE
:1001300069837A838B839C83809137019091380106
:10014000A0913901B0913A019C01AD0169817A8198
:100150008B819C810E94EB03882309F477C020E007
:1001600030E0A90169817A818B819C810E94EB0337
:10017000882351F481E990E021E930E0F901208100
:100180002870FC01208309C081E990E021E930E07A
:10019000F90120812360FC01208328E539E344E74D
:1001A0005FE369817A818B819C810E94EB038823C4
:1001B00044F488E990E02FEF3FEFFC013183208386
:1001C00034C020E034E244EF56E469817A818B81C7
:1001D0009C810E940D05181634F488E990E0FC011A
:1001E0001182108222C008E910E020E030E040E0F7
:1001F00053E469817A818B819C810E941205DC0124
:10020000CB019C01AD0160E074E284EF9AE40E94AE
:10021000F003DC01CB01BC01CD010E946204DC01D2
:10022000CB010197F8019183808384E990E0FC0180
:100230001182108289819A81AB81BC8180933701C0
:1002400090933801A0933901B0933A0100000F90C8
:100250000F900F900F90DF91CF911F910F91089504
:10026000CF93DF93CDB7DEB780E990E020E4FC01C7
:10027000208381E990E02BE0FC01208360E070E0C6
:10028000CB010E9490000000DF91CF910895CF93A1
:10029000DF93CDB7DEB780E990E0FC01108281E901
:1002A00090E0FC0110820000DF91CF910895CF9380
:1002B000DF93CDB7DEB781E890E02BE0FC0120832F
:1002C00088E890E02DE730E0FC01318320838FE661
:1002D00090E022E0FC01208384E890E0FC011182A0
:1002E000108280910E0190910F01A0911001B091A8
:1002F00011018093330190933401A0933501B093A1
:1003000036018FE590E02FE530E0F901208120688B
:10031000FC0120830000DF91CF910895CF93DF93FC
:10032000CDB7DEB781E890E0FC0110820000DF91DC
:10033000CF910895CF93DF93CDB7DEB781E080935F
:1003400032010000DF91CF9108951F920F9200902B
:100350005F000F92112400905B000F922F933F9348
:100360004F935F936F937F938F939F93AF93BF93BD
:10037000EF93FF93CF93DF93CDB7DEB78091330137
:1003800090913401A0913501B09136010197A109F6
:10039000B1098093330190933401A0933501B09358
:1003A00036018091330190913401A0913501B091D3
:1003B0003601892B8A2B8B2B91F40E949A01809114
:1003C0000E0190910F01A0911001B0911101809345
:1003D000330190933401A0933501B09336010000AE
:1003E000DF91CF91FF91EF91BF91AF919F918F914D
:1003F0007F916F915F914F913F912F910F9000925C
:100400005B000F9000925F000F901F901895CF93A4
:10041000DF9300D000D0CDB7DEB769837A838B83BA
:100420009C8389819A81AB81BC8180930E019093DA
:100430000F01A0931001B093110180910E019091D2
:100440000F01A0911001B09111018093330190939D
:100450003401A0933501B093360100000F900F9046
:100460000F900F90DF91CF910895CF93DF931F925C
:10047000CDB7DEB780E290E0FC018081882F90E06C
:100480008170992721E0892B09F020E02983809150
:100490004001909141018230910509F448C08330B8
:1004A000910528F4009749F0019781F151C08330FC
:1004B000910551F00497C9F04BC083E090E0909310
:1004C0004101809340014BC08981813039F484E03F
:1004D00090E0909341018093400141C083E090E01F
:1004E00090934101809340013AC08981813039F471
:1004F00084E090E0909341018093400130C081E01E
:1005000090E0909341018093400129C0898181301E
:1005100039F482E090E090934101809340011FC044
:1005200081E090E0909341018093400118C089815F
:10053000813039F482E090E0909341018093400152
:100540000EC083E090E0909341018093400107C08A
:1005500083E090E0909341018093400100008091FE
:100560004001909141018230910529F1833091053C
:1005700028F4009729F10197B9F023C08330910541
:1005800019F0049751F01DC010923E0110923D01E8
:1005900010923C0110923B0114C081E090E09093D6
:1005A0003E0180933D010DC081E090E090933E01BB
:1005B00080933D0106C010923E0110923D0101C0A2
:1005C000000000000F90DF91CF910895CF93DF934B
:1005D0001F92CDB7DEB780913D0190913E01892BEE
:1005E00031F460E070E0CB010E949000BCC080E27A
:1005F00090E0FC01808180958670898380913B0129
:1006000090913C018230910509F447C083309105F7
:1006100028F4009779F00197B9F06FC08430910504
:1006200009F464C08430910508F43EC0059709F4CC
:100630004CC063C081E090E090933C0180933B010B
:100640008FEF80933F0160C08981823081F4809177
:100650003F01883060F482E090E090933C01809309
:100660003B0180913F018F5F80933F014DC08981A5
:10067000843061F484E090E090933C0180933B01EE
:1006800080913F01815080933F013EC081E090E026
:1006900090933C0180933B0137C083E090E09093BE
:1006A0003C0180933B0130C08981823039F483E082
:1006B00090E090933C0180933B0126C081E090E064
:1006C00090933C0180933B011FC08981843039F4B1
:1006D00085E090E090933C0180933B0115C081E060
:1006E00090E090933C0180933B010EC085E090E048
:1006F00090933C0180933B0107C081E090E0909390
:100700003C0180933B01000080913B0190913C01B2
:100710008230910561F08230910520F1843091059D
:1007200031F084309105F0F00597E1F014C080912C
:100730003F01882F90E0880F991F880F991F8E5EC8
:100740009E4FFC0180819181A281B381BC01CD01CA
:100750000E94900008C060E070E0CB010E94900011
:10076000000001C000000F90DF91CF910895CF935A
:10077000DF93CDB7DEB781E290E0FC01108282E228
:1007800090E02FEFFC01208384E290E02FEFFC014A
:10079000208385E290E0FC0110820E9430016CE22F
:1007A00071E080E090E00E9407020E9457011092E1
:1007B0003C0110923B0110924101109240010E94B5
:1007C00035020E94E6020000809132018823E1F3A5
:1007D00010923201F4CF0E94980408F481E0089549
:1007E0000E9404040C94D3040E94CC0458F00E948C
:1007F000C50440F029F45F3F29F00C94BC0451116A
:100800000C9407050C94C2040E94E40468F3992335
:10081000B1F3552391F3951B550BBB27AA276217FC
:100820007307840738F09F5F5F4F220F331F441F09
:10083000AA1FA9F335D00E2E3AF0E0E832D091503D
:100840005040E695001CCAF72BD0FE2F29D0660F2A
:10085000771F881FBB1F261737074807AB07B0E86D
:1008600009F0BB0B802DBF01FF2793585F4F3AF073
:100870009E3F510578F00C94BC040C9407055F3F33
:10088000E4F3983ED4F3869577956795B795F795F9
:100890009F5FC9F7880F911D9695879597F90895E1
:1008A000E1E0660F771F881FBB1F6217730784077D
:1008B000BA0720F0621B730B840BBA0BEE1F88F78C
:1008C000E09508950E9469046894B1110C9407059D
:1008D00008950E94EC0488F09F5798F0B92F99274B
:1008E000B751B0F0E1F0660F771F881F991F1AF01B
:1008F000BA95C9F714C0B13091F00E940605B1E075
:1009000008950C940605672F782F8827B85F39F073
:10091000B93FCCF3869577956795B395D9F73EF4B3
:1009200090958095709561957F4F8F4F9F4F08955B
:10093000990F0008550FAA0BE0E8FEEF16161706F0
:10094000E807F907C0F012161306E407F50798F058
:10095000621B730B840B950B39F40A2661F0232B71
:10096000242B252B21F408950A2609F4A140A695ED
:100970008FEF811D811D089597F99F6780E870E0D2
:1009800060E008959FEF80EC089500240A94161605
:10099000170618060906089500240A94121613066D
:1009A000140605060895092E0394000C11F48823FB
:1009B00052F0BB0F40F4BF2B11F460FF04C06F5F17
:1009C0007F4F8F4F9F4F089557FD9058440F551FED
:1009D00059F05F3F71F04795880F97FB991F61F0C1
:1009E0009F3F79F087950895121613061406551F38
:1009F000F2CF4695F1DF08C0161617061806991FA4
:100A0000F1CF86957105610508940895E894BB2798
:100A100066277727CB0197F908950E94980408F478
:100A20008FEF08950E9425050C94D3040E94C504FD
:100A300038F00E94CC0420F0952311F00C94BC04F3
:100A40000C94C20411240C9407050E94E40470F372
:100A5000959FC1F3950F50E0551F629FF001729F63
:100A6000BB27F00DB11D639FAA27F00DB11DAA1F72
:100A7000649F6627B00DA11D661F829F2227B00DBF
:100A8000A11D621F739FB00DA11D621F839FA00D4A
:100A9000611D221F749F3327A00D611D231F849F9A
:100AA000600D211D822F762F6A2F11249F575040F1
:100AB0009AF0F1F088234AF0EE0FFF1FBB1F661F6C
:100AC000771F881F91505040A9F79E3F510580F035
:100AD0000C94BC040C9407055F3FE4F3983ED4F3F8
:100AE000869577956795B795F795E7959F5FC1F7D9
:100AF000FE2B880F911D9695879597F90895F89488
:020B0000FFCF25
:100B02000000000200000000670000000000010079
:100B12000000A4D082437BD49243A4D0A443719D0D
:100B2200AE430000C4430000DC43A4F0F64300D00F
:020B320002447B
:00000001FF
