:100000000C9446000C9465000C9465000C946500FB
:100010000C9465000C9465000C9465000C946500CC
:100020000C9465000C9465000C9465000C946500BC
:100030000C9465000C94A5010C9465000C9465006B
:100040000C9465000C9465000C9465000C9465009C
:100050000C9465000C9465000C9465000C9465008C
:100060000C9465000C9465000C9465000C9465007C
:100070000C9465000C9465000C9465000C9465006C
:100080000C9465000C9465000C94650011241FBE4F
:10009000CFEFD0E4DEBFCDBF11E0A0E0B1E0ECEAED
:1000A000F9E000E00BBF02C007900D92A23BB10740
:1000B000D9F721E0A2EBB1E001C01D92A23CB2074A
:1000C000E1F70E940E030C94D4040C940000CF932B
:1000D000DF9300D01F92CDB7DEB789837B836A831D
:1000E00089818A3031F48A819B81BC018DE00E9434
:1000F000670080EC90E0FC018081882F90E08072A6
:100100009927892BB1F386EC90E02981FC012083AB
:1001100080E090E00F900F900F90DF91CF910895C5
:100120000F931F93CF93DF9300D000D0CDB7DEB7EE
:1001300069837A838B839C838091B7019091B80106
:10014000A091B901B091BA019C01AD0169817A8198
:100150008B819C810E944003882309F477C020E0B2
:1001600030E0A90169817A818B819C810E944003E2
:10017000882351F481E990E021E930E0F901208100
:100180002870FC01208309C081E990E021E930E07A
:10019000F90120812360FC01208328E539E344E74D
:1001A0005FE369817A818B819C810E94400388236F
:1001B00044F488E990E02FEF3FEFFC013183208386
:1001C00034C020E034E244EF56E469817A818B81C7
:1001D0009C810E946204181634F488E990E0FC01C6
:1001E0001182108222C008E910E020E030E040E0F7
:1001F00053E469817A818B819C810E946704DC01D0
:10020000CB019C01AD0160E074E284EF9AE40E94AE
:100210004503DC01CB01BC01CD010E94B703DC0129
:10022000CB010197F8019183808384E990E0FC0180
:100230001182108289819A81AB81BC818093B70140
:100240009093B801A093B901B093BA0100000F9048
:100250000F900F900F90DF91CF911F910F91089504
:10026000CF93DF93CDB7DEB780E990E020E4FC01C7
:10027000208381E990E02BE0FC01208360E070E0C6
:10028000CB010E9490000000DF91CF910895CF93A1
:10029000DF93CDB7DEB780E990E0FC01108281E901
:1002A00090E0FC0110820000DF91CF910895CF9380
:1002B000DF93CDB7DEB781E890E02BE0FC0120832F
:1002C00088E890E02DE730E0FC01318320838FE661
:1002D00090E022E0FC01208384E890E0FC011182A0
:1002E000108280910E0190910F01A0911001B091A8
:1002F00011018093B3019093B401A093B501B09321
:10030000B6018FE590E02FE530E0F901208120680B
:10031000FC0120830000DF91CF910895CF93DF93FC
:10032000CDB7DEB781E890E0FC0110820000DF91DC
:10033000CF910895CF93DF93CDB7DEB781E080935F
:10034000B2010000DF91CF9108951F920F920090AB
:100350005F000F92112400905B000F922F933F9348
:100360004F935F936F937F938F939F93AF93BF93BD
:10037000EF93FF93CF93DF93CDB7DEB78091B301B7
:100380009091B401A091B501B091B6010197A10976
:10039000B1098093B3019093B401A093B501B093D8
:1003A000B6018091B3019091B401A091B501B091D3
:1003B000B601892B8A2B8B2B91F40E949A01809194
:1003C0000E0190910F01A0911001B0911101809345
:1003D000B3019093B401A093B501B093B6010000AE
:1003E000DF91CF91FF91EF91BF91AF919F918F914D
:1003F0007F916F915F914F913F912F910F9000925C
:100400005B000F9000925F000F901F901895CF93A4
:10041000DF9300D000D0CDB7DEB769837A838B83BA
:100420009C8389819A81AB81BC8180930E019093DA
:100430000F01A0931001B093110180910E019091D2
:100440000F01A0911001B09111018093B30190931D
:10045000B401A093B501B093B60100000F900F90C6
:100460000F900F90DF91CF910895CF93DF93CDB789
:10047000DEB7C15AD1090FB6F894DEBF0FBECDBFAB
:1004800080E290E0FC018081882F90E081709927C4
:1004900021E0892B09F020E0298380EAE2E1F1E004
:1004A000DE01129601900D928A95E1F78091C001CC
:1004B0009091C1018130910581F08130910530F03A
:1004C00082309105E9F00397D9F14BC081E090E0CB
:1004D0009093C1018093C0014BC08981813049F460
:1004E00082E090E09093C1018093C0011092BB0123
:1004F0003FC081E090E09093C1018093C00138C07B
:100500008091BB01883238F482E090E09093C10181
:100510008093C0012DC08091BB01883251F4898144
:10052000813039F483E090E09093C1018093C00161
:100530001FC081E090E09093C1018093C00118C07A
:100540008981813039F483E090E09093C1018093F8
:10055000C0010EC081E090E09093C1018093C00182
:1005600007C081E090E09093C1018093C00100003A
:100570008091C0019091C1018130910551F081308D
:10058000910508F43FC08230910549F00397A1F12D
:100590003AC060E070E0CB010E94900034C08091CE
:1005A000BB01882F90E0880F991F880F991F9E012B
:1005B0002F5F3F4F820F931F0196FC018081918135
:1005C000A281B3818093BC019093BD01A093BE0131
:1005D000B093BF018091BC019091BD01A091BE017B
:1005E000B091BF01BC01CD010E9490008091BB0180
:1005F0008F5F8093BB0107C060E070E0CB010E9479
:10060000900001C000000000CF55DF4F0FB6F894F6
:10061000DEBF0FBECDBFDF91CF910895CF93DF93A3
:10062000CDB7DEB781E290E0FC01108282E290E07B
:100630002FEFFC01208384E290E02FEFFC01208368
:1006400085E290E0FC0110820E9447010E94300187
:100650000E948E016DE770E080E090E00E9407024A
:100660000E9457011092C1011092C0010E943502F0
:1006700000008091B2018823E1F31092B201F6CF1D
:100680000E94ED0308F481E008950E9459030C9440
:1006900028040E94210458F00E941A0440F029F412
:1006A0005F3F29F00C94110451110C945C040C94DC
:1006B00017040E94390468F39923B1F3552391F389
:1006C000951B550BBB27AA2762177307840738F0C1
:1006D0009F5F5F4F220F331F441FAA1FA9F335D01E
:1006E0000E2E3AF0E0E832D091505040E695001CD2
:1006F000CAF72BD0FE2F29D0660F771F881FBB1F8C
:10070000261737074807AB07B0E809F0BB0B802D69
:10071000BF01FF2793585F4F3AF09E3F510578F095
:100720000C9411040C945C045F3FE4F3983ED4F302
:10073000869577956795B795F7959F5FC9F7880F69
:10074000911D9695879597F90895E1E0660F771FBB
:10075000881FBB1F621773078407BA0720F0621B4C
:10076000730B840BBA0BEE1F88F7E09508950E9477
:10077000BE036894B1110C945C0408950E94410476
:1007800088F09F5798F0B92F9927B751B0F0E1F052
:10079000660F771F881F991F1AF0BA95C9F714C002
:1007A000B13091F00E945B04B1E008950C945B04B9
:1007B000672F782F8827B85F39F0B93FCCF386953B
:1007C00077956795B395D9F73EF490958095709598
:1007D00061957F4F8F4F9F4F0895990F0008550FD8
:1007E000AA0BE0E8FEEF16161706E807F907C0F0B7
:1007F00012161306E407F50798F0621B730B840BBF
:10080000950B39F40A2661F0232B242B252B21F498
:1008100008950A2609F4A140A6958FEF811D811D38
:10082000089597F99F6780E870E060E008959FEF72
:1008300080EC089500240A94161617061806090677
:10084000089500240A941216130614060506089546
:10085000092E0394000C11F4882352F0BB0F40F4CE
:10086000BF2B11F460FF04C06F5F7F4F8F4F9F4F0E
:10087000089557FD9058440F551F59F05F3F71F090
:100880004795880F97FB991F61F09F3F79F08795F7
:100890000895121613061406551FF2CF4695F1DF80
:1008A00008C0161617061806991FF1CF8695710510
:1008B000610508940895E894BB2766277727CB0144
:1008C00097F908950E94ED0308F48FEF08950E94B0
:1008D0007A040C9428040E941A0438F00E9421041F
:1008E00020F0952311F00C9411040C94170411249A
:1008F0000C945C040E94390470F3959FC1F3950F2A
:1009000050E0551F629FF001729FBB27F00DB11D93
:10091000639FAA27F00DB11DAA1F649F6627B00D23
:10092000A11D661F829F2227B00DA11D621F739F0C
:10093000B00DA11D621F839FA00D611D221F749F1A
:100940003327A00D611D231F849F600D211D822F61
:10095000762F6A2F11249F5750409AF0F1F0882388
:100960004AF0EE0FFF1FBB1F661F771F881F9150B5
:100970005040A9F79E3F510580F00C9411040C944F
:100980005C045F3FE4F3983ED4F3869577956795D2
:10099000B795F795E7959F5FC1F7FE2B880F911DDF
:0C09A0009695879597F90895F894FFCF7D
:1009AC0000000002000000006700000000000100D1
:1009BC0000000000C443000000000000000000D054
:1009CC000244000000000000C443000000000000CE
:1009DC00C443000000000000C443000000000000FD
:1009EC0000000000000066D6024400000000000079
:1009FC00C443000000000000C443000000000000DD
:100A0C00C4430000000000000000000000000010C3
:100A1C000544000000000000C4430000000000007A
:100A2C00C443000000000000C4430000C4430000A5
:100A3C00C4430000C4430000C4430000C44300008E
:100A4C00C4430000C4430000C4430000C44300007E
:020A5C00C44391
:00000001FF
